{
  "contractName": "RetailerRole",
  "abi": [
    {
      "inputs": [],
      "payable": false,
      "stateMutability": "nonpayable",
      "type": "constructor"
    },
    {
      "constant": true,
      "inputs": [
        {
          "name": "account",
          "type": "address"
        }
      ],
      "name": "isRetailer",
      "outputs": [
        {
          "name": "",
          "type": "bool"
        }
      ],
      "payable": false,
      "stateMutability": "view",
      "type": "function"
    },
    {
      "constant": false,
      "inputs": [
        {
          "name": "account",
          "type": "address"
        }
      ],
      "name": "addRetailer",
      "outputs": [],
      "payable": false,
      "stateMutability": "nonpayable",
      "type": "function"
    },
    {
      "constant": false,
      "inputs": [],
      "name": "renounceRetailer",
      "outputs": [],
      "payable": false,
      "stateMutability": "nonpayable",
      "type": "function"
    }
  ],
  "bytecode": "0x608060405234801561001057600080fd5b5061011b806100206000396000f3fe6080604052348015600f57600080fd5b5060043610603c5760003560e01c80635da09b881460415780638ec4f50514609a578063db0e6a2f1460db575b600080fd5b608060048036036020811015605557600080fd5b81019080803573ffffffffffffffffffffffffffffffffffffffff16906020019092919050505060e3565b604051808215151515815260200191505060405180910390f35b60d96004803603602081101560ae57600080fd5b81019080803573ffffffffffffffffffffffffffffffffffffffff16906020019092919050505060ea565b005b60e160ed565b005b6000919050565b50565b56fea165627a7a72305820b167254c17dd3df0871444b1d0c2cf6a9d2602b96a2f543a837468462dc5f6fc0029",
  "source": "pragma solidity ^0.5.8;\r\n\r\n// Import the library 'Roles'\r\nimport \"./Roles.sol\";\r\n\r\n// Define a contract 'RetailerRole' to manage this role - add, remove, check\r\ncontract RetailerRole {\r\n\r\n  // Define 2 events, one for Adding, and other for Removing\r\n  \r\n  // Define a struct 'retailers' by inheriting from 'Roles' library, struct Role\r\n\r\n  // In the constructor make the address that deploys this contract the 1st retailer\r\n  constructor() public {\r\n    \r\n  }\r\n\r\n  // Define a modifier that checks to see if msg.sender has the appropriate role\r\n  modifier onlyRetailer() {\r\n    \r\n    _;\r\n  }\r\n\r\n  // Define a function 'isRetailer' to check this role\r\n  function isRetailer(address account) public view returns (bool) {\r\n    \r\n  }\r\n\r\n  // Define a function 'addRetailer' that adds this role\r\n  function addRetailer(address account) public onlyRetailer {\r\n    \r\n  }\r\n\r\n  // Define a function 'renounceRetailer' to renounce this role\r\n  function renounceRetailer() public {\r\n    \r\n  }\r\n\r\n  // Define an internal function '_addRetailer' to add this role, called by 'addRetailer'\r\n  function _addRetailer(address account) internal {\r\n    \r\n  }\r\n\r\n  // Define an internal function '_removeRetailer' to remove this role, called by 'removeRetailer'\r\n  function _removeRetailer(address account) internal {\r\n    \r\n  }\r\n}",
  "sourcePath": "D:/AXEL/Personal/Tutorials/suply_chain/project-6/contracts/coffeeaccesscontrol/RetailerRole.sol",
  "compiler": {
    "name": "solc",
    "version": "0.5.8+commit.23d335f2.Emscripten.clang"
  },
  "schemaVersion": "3.0.11",
  "updatedAt": "2019-06-27T02:21:50.596Z",
  "devdoc": {
    "methods": {}
  },
  "userdoc": {
    "methods": {}
  }
}